{
  "_format": "hh-sol-artifact-1",
  "contractName": "MyERC721",
  "sourceName": "contracts/ERC721.sol",
  "abi": [
    {
      "inputs": [
        {
          "internalType": "address",
          "name": "initialOwner",
          "type": "address"
        }
      ],
      "stateMutability": "nonpayable",
      "type": "constructor"
    },
    {
      "inputs": [],
      "name": "ERC721EnumerableForbiddenBatchMint",
      "type": "error"
    },
    {
      "inputs": [
        {
          "internalType": "address",
          "name": "sender",
          "type": "address"
        },
        {
          "internalType": "uint256",
          "name": "tokenId",
          "type": "uint256"
        },
        {
          "internalType": "address",
          "name": "owner",
          "type": "address"
        }
      ],
      "name": "ERC721IncorrectOwner",
      "type": "error"
    },
    {
      "inputs": [
        {
          "internalType": "address",
          "name": "operator",
          "type": "address"
        },
        {
          "internalType": "uint256",
          "name": "tokenId",
          "type": "uint256"
        }
      ],
      "name": "ERC721InsufficientApproval",
      "type": "error"
    },
    {
      "inputs": [
        {
          "internalType": "address",
          "name": "approver",
          "type": "address"
        }
      ],
      "name": "ERC721InvalidApprover",
      "type": "error"
    },
    {
      "inputs": [
        {
          "internalType": "address",
          "name": "operator",
          "type": "address"
        }
      ],
      "name": "ERC721InvalidOperator",
      "type": "error"
    },
    {
      "inputs": [
        {
          "internalType": "address",
          "name": "owner",
          "type": "address"
        }
      ],
      "name": "ERC721InvalidOwner",
      "type": "error"
    },
    {
      "inputs": [
        {
          "internalType": "address",
          "name": "receiver",
          "type": "address"
        }
      ],
      "name": "ERC721InvalidReceiver",
      "type": "error"
    },
    {
      "inputs": [
        {
          "internalType": "address",
          "name": "sender",
          "type": "address"
        }
      ],
      "name": "ERC721InvalidSender",
      "type": "error"
    },
    {
      "inputs": [
        {
          "internalType": "uint256",
          "name": "tokenId",
          "type": "uint256"
        }
      ],
      "name": "ERC721NonexistentToken",
      "type": "error"
    },
    {
      "inputs": [
        {
          "internalType": "address",
          "name": "owner",
          "type": "address"
        },
        {
          "internalType": "uint256",
          "name": "index",
          "type": "uint256"
        }
      ],
      "name": "ERC721OutOfBoundsIndex",
      "type": "error"
    },
    {
      "inputs": [
        {
          "internalType": "address",
          "name": "owner",
          "type": "address"
        }
      ],
      "name": "OwnableInvalidOwner",
      "type": "error"
    },
    {
      "inputs": [
        {
          "internalType": "address",
          "name": "account",
          "type": "address"
        }
      ],
      "name": "OwnableUnauthorizedAccount",
      "type": "error"
    },
    {
      "anonymous": false,
      "inputs": [
        {
          "indexed": true,
          "internalType": "address",
          "name": "owner",
          "type": "address"
        },
        {
          "indexed": true,
          "internalType": "address",
          "name": "approved",
          "type": "address"
        },
        {
          "indexed": true,
          "internalType": "uint256",
          "name": "tokenId",
          "type": "uint256"
        }
      ],
      "name": "Approval",
      "type": "event"
    },
    {
      "anonymous": false,
      "inputs": [
        {
          "indexed": true,
          "internalType": "address",
          "name": "owner",
          "type": "address"
        },
        {
          "indexed": true,
          "internalType": "address",
          "name": "operator",
          "type": "address"
        },
        {
          "indexed": false,
          "internalType": "bool",
          "name": "approved",
          "type": "bool"
        }
      ],
      "name": "ApprovalForAll",
      "type": "event"
    },
    {
      "anonymous": false,
      "inputs": [
        {
          "indexed": true,
          "internalType": "address",
          "name": "previousOwner",
          "type": "address"
        },
        {
          "indexed": true,
          "internalType": "address",
          "name": "newOwner",
          "type": "address"
        }
      ],
      "name": "OwnershipTransferred",
      "type": "event"
    },
    {
      "anonymous": false,
      "inputs": [
        {
          "indexed": true,
          "internalType": "address",
          "name": "from",
          "type": "address"
        },
        {
          "indexed": true,
          "internalType": "address",
          "name": "to",
          "type": "address"
        },
        {
          "indexed": true,
          "internalType": "uint256",
          "name": "tokenId",
          "type": "uint256"
        }
      ],
      "name": "Transfer",
      "type": "event"
    },
    {
      "inputs": [],
      "name": "MAX_SUPPLY",
      "outputs": [
        {
          "internalType": "uint256",
          "name": "",
          "type": "uint256"
        }
      ],
      "stateMutability": "view",
      "type": "function"
    },
    {
      "inputs": [],
      "name": "MINT_PRICE",
      "outputs": [
        {
          "internalType": "uint256",
          "name": "",
          "type": "uint256"
        }
      ],
      "stateMutability": "view",
      "type": "function"
    },
    {
      "inputs": [
        {
          "internalType": "address",
          "name": "to",
          "type": "address"
        },
        {
          "internalType": "uint256",
          "name": "tokenId",
          "type": "uint256"
        }
      ],
      "name": "approve",
      "outputs": [],
      "stateMutability": "nonpayable",
      "type": "function"
    },
    {
      "inputs": [
        {
          "internalType": "address",
          "name": "owner",
          "type": "address"
        }
      ],
      "name": "balanceOf",
      "outputs": [
        {
          "internalType": "uint256",
          "name": "",
          "type": "uint256"
        }
      ],
      "stateMutability": "view",
      "type": "function"
    },
    {
      "inputs": [],
      "name": "currentSupply",
      "outputs": [
        {
          "internalType": "uint256",
          "name": "",
          "type": "uint256"
        }
      ],
      "stateMutability": "view",
      "type": "function"
    },
    {
      "inputs": [
        {
          "internalType": "uint256",
          "name": "tokenId",
          "type": "uint256"
        }
      ],
      "name": "getApproved",
      "outputs": [
        {
          "internalType": "address",
          "name": "",
          "type": "address"
        }
      ],
      "stateMutability": "view",
      "type": "function"
    },
    {
      "inputs": [
        {
          "internalType": "address",
          "name": "owner",
          "type": "address"
        },
        {
          "internalType": "address",
          "name": "operator",
          "type": "address"
        }
      ],
      "name": "isApprovedForAll",
      "outputs": [
        {
          "internalType": "bool",
          "name": "",
          "type": "bool"
        }
      ],
      "stateMutability": "view",
      "type": "function"
    },
    {
      "inputs": [],
      "name": "mint",
      "outputs": [],
      "stateMutability": "payable",
      "type": "function"
    },
    {
      "inputs": [],
      "name": "name",
      "outputs": [
        {
          "internalType": "string",
          "name": "",
          "type": "string"
        }
      ],
      "stateMutability": "view",
      "type": "function"
    },
    {
      "inputs": [],
      "name": "owner",
      "outputs": [
        {
          "internalType": "address",
          "name": "",
          "type": "address"
        }
      ],
      "stateMutability": "view",
      "type": "function"
    },
    {
      "inputs": [
        {
          "internalType": "uint256",
          "name": "tokenId",
          "type": "uint256"
        }
      ],
      "name": "ownerOf",
      "outputs": [
        {
          "internalType": "address",
          "name": "",
          "type": "address"
        }
      ],
      "stateMutability": "view",
      "type": "function"
    },
    {
      "inputs": [],
      "name": "renounceOwnership",
      "outputs": [],
      "stateMutability": "nonpayable",
      "type": "function"
    },
    {
      "inputs": [
        {
          "internalType": "address",
          "name": "from",
          "type": "address"
        },
        {
          "internalType": "address",
          "name": "to",
          "type": "address"
        },
        {
          "internalType": "uint256",
          "name": "tokenId",
          "type": "uint256"
        }
      ],
      "name": "safeTransferFrom",
      "outputs": [],
      "stateMutability": "nonpayable",
      "type": "function"
    },
    {
      "inputs": [
        {
          "internalType": "address",
          "name": "from",
          "type": "address"
        },
        {
          "internalType": "address",
          "name": "to",
          "type": "address"
        },
        {
          "internalType": "uint256",
          "name": "tokenId",
          "type": "uint256"
        },
        {
          "internalType": "bytes",
          "name": "data",
          "type": "bytes"
        }
      ],
      "name": "safeTransferFrom",
      "outputs": [],
      "stateMutability": "nonpayable",
      "type": "function"
    },
    {
      "inputs": [
        {
          "internalType": "address",
          "name": "operator",
          "type": "address"
        },
        {
          "internalType": "bool",
          "name": "approved",
          "type": "bool"
        }
      ],
      "name": "setApprovalForAll",
      "outputs": [],
      "stateMutability": "nonpayable",
      "type": "function"
    },
    {
      "inputs": [
        {
          "internalType": "bytes4",
          "name": "interfaceId",
          "type": "bytes4"
        }
      ],
      "name": "supportsInterface",
      "outputs": [
        {
          "internalType": "bool",
          "name": "",
          "type": "bool"
        }
      ],
      "stateMutability": "view",
      "type": "function"
    },
    {
      "inputs": [],
      "name": "symbol",
      "outputs": [
        {
          "internalType": "string",
          "name": "",
          "type": "string"
        }
      ],
      "stateMutability": "view",
      "type": "function"
    },
    {
      "inputs": [
        {
          "internalType": "uint256",
          "name": "index",
          "type": "uint256"
        }
      ],
      "name": "tokenByIndex",
      "outputs": [
        {
          "internalType": "uint256",
          "name": "",
          "type": "uint256"
        }
      ],
      "stateMutability": "view",
      "type": "function"
    },
    {
      "inputs": [
        {
          "internalType": "address",
          "name": "owner",
          "type": "address"
        },
        {
          "internalType": "uint256",
          "name": "index",
          "type": "uint256"
        }
      ],
      "name": "tokenOfOwnerByIndex",
      "outputs": [
        {
          "internalType": "uint256",
          "name": "",
          "type": "uint256"
        }
      ],
      "stateMutability": "view",
      "type": "function"
    },
    {
      "inputs": [
        {
          "internalType": "uint256",
          "name": "tokenId",
          "type": "uint256"
        }
      ],
      "name": "tokenURI",
      "outputs": [
        {
          "internalType": "string",
          "name": "",
          "type": "string"
        }
      ],
      "stateMutability": "view",
      "type": "function"
    },
    {
      "inputs": [],
      "name": "totalSupply",
      "outputs": [
        {
          "internalType": "uint256",
          "name": "",
          "type": "uint256"
        }
      ],
      "stateMutability": "view",
      "type": "function"
    },
    {
      "inputs": [
        {
          "internalType": "address",
          "name": "from",
          "type": "address"
        },
        {
          "internalType": "address",
          "name": "to",
          "type": "address"
        },
        {
          "internalType": "uint256",
          "name": "tokenId",
          "type": "uint256"
        }
      ],
      "name": "transferFrom",
      "outputs": [],
      "stateMutability": "nonpayable",
      "type": "function"
    },
    {
      "inputs": [
        {
          "internalType": "address",
          "name": "newOwner",
          "type": "address"
        }
      ],
      "name": "transferOwnership",
      "outputs": [],
      "stateMutability": "nonpayable",
      "type": "function"
    }
  ],
  "bytecode": "0x60806040523480156200001157600080fd5b50604051620031b4380380620031b4833981810160405281019062000037919062000288565b806040518060400160405280600d81526020017f4d79455243373231546f6b656e000000000000000000000000000000000000008152506040518060400160405280600381526020017f4d455400000000000000000000000000000000000000000000000000000000008152508160009081620000b5919062000534565b508060019081620000c7919062000534565b505050600073ffffffffffffffffffffffffffffffffffffffff168173ffffffffffffffffffffffffffffffffffffffff16036200013f5760006040517f1e4fbdf70000000000000000000000000000000000000000000000000000000081526004016200013691906200062c565b60405180910390fd5b62000150816200015860201b60201c565b505062000649565b6000600a60009054906101000a900473ffffffffffffffffffffffffffffffffffffffff16905081600a60006101000a81548173ffffffffffffffffffffffffffffffffffffffff021916908373ffffffffffffffffffffffffffffffffffffffff1602179055508173ffffffffffffffffffffffffffffffffffffffff168173ffffffffffffffffffffffffffffffffffffffff167f8be0079c531659141344cd1fd0a4f28419497f9722a3daafe3b4186f6b6457e060405160405180910390a35050565b600080fd5b600073ffffffffffffffffffffffffffffffffffffffff82169050919050565b6000620002508262000223565b9050919050565b620002628162000243565b81146200026e57600080fd5b50565b600081519050620002828162000257565b92915050565b600060208284031215620002a157620002a06200021e565b5b6000620002b18482850162000271565b91505092915050565b600081519050919050565b7f4e487b7100000000000000000000000000000000000000000000000000000000600052604160045260246000fd5b7f4e487b7100000000000000000000000000000000000000000000000000000000600052602260045260246000fd5b600060028204905060018216806200033c57607f821691505b602082108103620003525762000351620002f4565b5b50919050565b60008190508160005260206000209050919050565b60006020601f8301049050919050565b600082821b905092915050565b600060088302620003bc7fffffffffffffffffffffffffffffffffffffffffffffffffffffffffffffffff826200037d565b620003c886836200037d565b95508019841693508086168417925050509392505050565b6000819050919050565b6000819050919050565b6000620004156200040f6200040984620003e0565b620003ea565b620003e0565b9050919050565b6000819050919050565b6200043183620003f4565b6200044962000440826200041c565b8484546200038a565b825550505050565b600090565b6200046062000451565b6200046d81848462000426565b505050565b5b8181101562000495576200048960008262000456565b60018101905062000473565b5050565b601f821115620004e457620004ae8162000358565b620004b9846200036d565b81016020851015620004c9578190505b620004e1620004d8856200036d565b83018262000472565b50505b505050565b600082821c905092915050565b60006200050960001984600802620004e9565b1980831691505092915050565b6000620005248383620004f6565b9150826002028217905092915050565b6200053f82620002ba565b67ffffffffffffffff8111156200055b576200055a620002c5565b5b62000567825462000323565b6200057482828562000499565b600060209050601f831160018114620005ac576000841562000597578287015190505b620005a3858262000516565b86555062000613565b601f198416620005bc8662000358565b60005b82811015620005e657848901518255600182019150602085019450602081019050620005bf565b8683101562000606578489015162000602601f891682620004f6565b8355505b6001600288020188555050505b505050505050565b620006268162000243565b82525050565b60006020820190506200064360008301846200061b565b92915050565b612b5b80620006596000396000f3fe6080604052600436106101405760003560e01c80636352211e116100b6578063a22cb4651161006f578063a22cb46514610451578063b88d4fde1461047a578063c002d23d146104a3578063c87b56dd146104ce578063e985e9c51461050b578063f2fde38b1461054857610140565b80636352211e1461033f57806370a082311461037c578063715018a6146103b9578063771282f6146103d05780638da5cb5b146103fb57806395d89b411461042657610140565b806318160ddd1161010857806318160ddd1461021d57806323b872dd146102485780632f745c591461027157806332cb6b0c146102ae57806342842e0e146102d95780634f6ccce71461030257610140565b806301ffc9a71461014557806306fdde0314610182578063081812fc146101ad578063095ea7b3146101ea5780631249c58b14610213575b600080fd5b34801561015157600080fd5b5061016c600480360381019061016791906121d8565b610571565b6040516101799190612220565b60405180910390f35b34801561018e57600080fd5b506101976105eb565b6040516101a491906122cb565b60405180910390f35b3480156101b957600080fd5b506101d460048036038101906101cf9190612323565b61067d565b6040516101e19190612391565b60405180910390f35b3480156101f657600080fd5b50610211600480360381019061020c91906123d8565b610699565b005b61021b6106af565b005b34801561022957600080fd5b506102326107de565b60405161023f9190612427565b60405180910390f35b34801561025457600080fd5b5061026f600480360381019061026a9190612442565b6107eb565b005b34801561027d57600080fd5b50610298600480360381019061029391906123d8565b6108ed565b6040516102a59190612427565b60405180910390f35b3480156102ba57600080fd5b506102c3610996565b6040516102d09190612427565b60405180910390f35b3480156102e557600080fd5b5061030060048036038101906102fb9190612442565b61099c565b005b34801561030e57600080fd5b5061032960048036038101906103249190612323565b6109bc565b6040516103369190612427565b60405180910390f35b34801561034b57600080fd5b5061036660048036038101906103619190612323565b610a32565b6040516103739190612391565b60405180910390f35b34801561038857600080fd5b506103a3600480360381019061039e9190612495565b610a44565b6040516103b09190612427565b60405180910390f35b3480156103c557600080fd5b506103ce610afe565b005b3480156103dc57600080fd5b506103e5610b12565b6040516103f29190612427565b60405180910390f35b34801561040757600080fd5b50610410610b21565b60405161041d9190612391565b60405180910390f35b34801561043257600080fd5b5061043b610b4b565b60405161044891906122cb565b60405180910390f35b34801561045d57600080fd5b50610478600480360381019061047391906124ee565b610bdd565b005b34801561048657600080fd5b506104a1600480360381019061049c9190612663565b610bf3565b005b3480156104af57600080fd5b506104b8610c10565b6040516104c59190612427565b60405180910390f35b3480156104da57600080fd5b506104f560048036038101906104f09190612323565b610c1c565b60405161050291906122cb565b60405180910390f35b34801561051757600080fd5b50610532600480360381019061052d91906126e6565b610c85565b60405161053f9190612220565b60405180910390f35b34801561055457600080fd5b5061056f600480360381019061056a9190612495565b610d19565b005b60007f780e9d63000000000000000000000000000000000000000000000000000000007bffffffffffffffffffffffffffffffffffffffffffffffffffffffff1916827bffffffffffffffffffffffffffffffffffffffffffffffffffffffff191614806105e457506105e382610d9f565b5b9050919050565b6060600080546105fa90612755565b80601f016020809104026020016040519081016040528092919081815260200182805461062690612755565b80156106735780601f1061064857610100808354040283529160200191610673565b820191906000526020600020905b81548152906001019060200180831161065657829003601f168201915b5050505050905090565b600061068882610e81565b5061069282610f09565b9050919050565b6106ab82826106a6610f46565b610f4e565b5050565b6127106106ba6107de565b106106fa576040517f08c379a00000000000000000000000000000000000000000000000000000000081526004016106f1906127d2565b60405180910390fd5b67016345785d8a0000341015610745576040517f08c379a000000000000000000000000000000000000000000000000000000000815260040161073c9061283e565b60405180910390fd5b6000600b5490506107563382610f60565b6001600b6000828254610769919061288d565b9250508190555067016345785d8a00003411156107db573373ffffffffffffffffffffffffffffffffffffffff166108fc67016345785d8a0000346107ae91906128c1565b9081150290604051600060405180830381858888f193505050501580156107d9573d6000803e3d6000fd5b505b50565b6000600880549050905090565b600073ffffffffffffffffffffffffffffffffffffffff168273ffffffffffffffffffffffffffffffffffffffff160361085d5760006040517f64a0ae920000000000000000000000000000000000000000000000000000000081526004016108549190612391565b60405180910390fd5b6000610871838361086c610f46565b610f7e565b90508373ffffffffffffffffffffffffffffffffffffffff168173ffffffffffffffffffffffffffffffffffffffff16146108e7578382826040517f64283d7b0000000000000000000000000000000000000000000000000000000081526004016108de939291906128f5565b60405180910390fd5b50505050565b60006108f883610a44565b821061093d5782826040517fa57d13dc00000000000000000000000000000000000000000000000000000000815260040161093492919061292c565b60405180910390fd5b600660008473ffffffffffffffffffffffffffffffffffffffff1673ffffffffffffffffffffffffffffffffffffffff168152602001908152602001600020600083815260200190815260200160002054905092915050565b61271081565b6109b783838360405180602001604052806000815250610bf3565b505050565b60006109c66107de565b8210610a0c576000826040517fa57d13dc000000000000000000000000000000000000000000000000000000008152600401610a0392919061292c565b60405180910390fd5b60088281548110610a2057610a1f612955565b5b90600052602060002001549050919050565b6000610a3d82610e81565b9050919050565b60008073ffffffffffffffffffffffffffffffffffffffff168273ffffffffffffffffffffffffffffffffffffffff1603610ab75760006040517f89c62b64000000000000000000000000000000000000000000000000000000008152600401610aae9190612391565b60405180910390fd5b600360008373ffffffffffffffffffffffffffffffffffffffff1673ffffffffffffffffffffffffffffffffffffffff168152602001908152602001600020549050919050565b610b0661109b565b610b106000611122565b565b6000610b1c6107de565b905090565b6000600a60009054906101000a900473ffffffffffffffffffffffffffffffffffffffff16905090565b606060018054610b5a90612755565b80601f0160208091040260200160405190810160405280929190818152602001828054610b8690612755565b8015610bd35780601f10610ba857610100808354040283529160200191610bd3565b820191906000526020600020905b815481529060010190602001808311610bb657829003601f168201915b5050505050905090565b610bef610be8610f46565b83836111e8565b5050565b610bfe8484846107eb565b610c0a84848484611357565b50505050565b67016345785d8a000081565b6060610c2782610e81565b506000610c3261150e565b90506000815111610c525760405180602001604052806000815250610c7d565b80610c5c84611525565b604051602001610c6d9291906129c0565b6040516020818303038152906040525b915050919050565b6000600560008473ffffffffffffffffffffffffffffffffffffffff1673ffffffffffffffffffffffffffffffffffffffff16815260200190815260200160002060008373ffffffffffffffffffffffffffffffffffffffff1673ffffffffffffffffffffffffffffffffffffffff16815260200190815260200160002060009054906101000a900460ff16905092915050565b610d2161109b565b600073ffffffffffffffffffffffffffffffffffffffff168173ffffffffffffffffffffffffffffffffffffffff1603610d935760006040517f1e4fbdf7000000000000000000000000000000000000000000000000000000008152600401610d8a9190612391565b60405180910390fd5b610d9c81611122565b50565b60007f80ac58cd000000000000000000000000000000000000000000000000000000007bffffffffffffffffffffffffffffffffffffffffffffffffffffffff1916827bffffffffffffffffffffffffffffffffffffffffffffffffffffffff19161480610e6a57507f5b5e139f000000000000000000000000000000000000000000000000000000007bffffffffffffffffffffffffffffffffffffffffffffffffffffffff1916827bffffffffffffffffffffffffffffffffffffffffffffffffffffffff1916145b80610e7a5750610e79826115f3565b5b9050919050565b600080610e8d8361165d565b9050600073ffffffffffffffffffffffffffffffffffffffff168173ffffffffffffffffffffffffffffffffffffffff1603610f0057826040517f7e273289000000000000000000000000000000000000000000000000000000008152600401610ef79190612427565b60405180910390fd5b80915050919050565b60006004600083815260200190815260200160002060009054906101000a900473ffffffffffffffffffffffffffffffffffffffff169050919050565b600033905090565b610f5b838383600161169a565b505050565b610f7a82826040518060200160405280600081525061185f565b5050565b600080610f8c85858561187b565b9050600073ffffffffffffffffffffffffffffffffffffffff168173ffffffffffffffffffffffffffffffffffffffff1603610fd057610fcb84611a95565b61100f565b8473ffffffffffffffffffffffffffffffffffffffff168173ffffffffffffffffffffffffffffffffffffffff161461100e5761100d8185611ade565b5b5b600073ffffffffffffffffffffffffffffffffffffffff168573ffffffffffffffffffffffffffffffffffffffff16036110515761104c84611c3f565b611090565b8473ffffffffffffffffffffffffffffffffffffffff168173ffffffffffffffffffffffffffffffffffffffff161461108f5761108e8585611d10565b5b5b809150509392505050565b6110a3610f46565b73ffffffffffffffffffffffffffffffffffffffff166110c1610b21565b73ffffffffffffffffffffffffffffffffffffffff1614611120576110e4610f46565b6040517f118cdaa70000000000000000000000000000000000000000000000000000000081526004016111179190612391565b60405180910390fd5b565b6000600a60009054906101000a900473ffffffffffffffffffffffffffffffffffffffff16905081600a60006101000a81548173ffffffffffffffffffffffffffffffffffffffff021916908373ffffffffffffffffffffffffffffffffffffffff1602179055508173ffffffffffffffffffffffffffffffffffffffff168173ffffffffffffffffffffffffffffffffffffffff167f8be0079c531659141344cd1fd0a4f28419497f9722a3daafe3b4186f6b6457e060405160405180910390a35050565b600073ffffffffffffffffffffffffffffffffffffffff168273ffffffffffffffffffffffffffffffffffffffff160361125957816040517f5b08ba180000000000000000000000000000000000000000000000000000000081526004016112509190612391565b60405180910390fd5b80600560008573ffffffffffffffffffffffffffffffffffffffff1673ffffffffffffffffffffffffffffffffffffffff16815260200190815260200160002060008473ffffffffffffffffffffffffffffffffffffffff1673ffffffffffffffffffffffffffffffffffffffff16815260200190815260200160002060006101000a81548160ff0219169083151502179055508173ffffffffffffffffffffffffffffffffffffffff168373ffffffffffffffffffffffffffffffffffffffff167f17307eab39ab6107e8899845ad3d59bd9653f200f220920489ca2b5937696c318360405161134a9190612220565b60405180910390a3505050565b60008373ffffffffffffffffffffffffffffffffffffffff163b1115611508578273ffffffffffffffffffffffffffffffffffffffff1663150b7a0261139b610f46565b8685856040518563ffffffff1660e01b81526004016113bd9493929190612a39565b6020604051808303816000875af19250505080156113f957506040513d601f19601f820116820180604052508101906113f69190612a9a565b60015b61147d573d8060008114611429576040519150601f19603f3d011682016040523d82523d6000602084013e61142e565b606091505b50600081510361147557836040517f64a0ae9200000000000000000000000000000000000000000000000000000000815260040161146c9190612391565b60405180910390fd5b805181602001fd5b63150b7a0260e01b7bffffffffffffffffffffffffffffffffffffffffffffffffffffffff1916817bffffffffffffffffffffffffffffffffffffffffffffffffffffffff19161461150657836040517f64a0ae920000000000000000000000000000000000000000000000000000000081526004016114fd9190612391565b60405180910390fd5b505b50505050565b606060405180602001604052806000815250905090565b60606000600161153484611d9b565b01905060008167ffffffffffffffff81111561155357611552612538565b5b6040519080825280601f01601f1916602001820160405280156115855781602001600182028036833780820191505090505b509050600082602001820190505b6001156115e8578080600190039150507f3031323334353637383961626364656600000000000000000000000000000000600a86061a8153600a85816115dc576115db612ac7565b5b04945060008503611593575b819350505050919050565b60007f01ffc9a7000000000000000000000000000000000000000000000000000000007bffffffffffffffffffffffffffffffffffffffffffffffffffffffff1916827bffffffffffffffffffffffffffffffffffffffffffffffffffffffff1916149050919050565b60006002600083815260200190815260200160002060009054906101000a900473ffffffffffffffffffffffffffffffffffffffff169050919050565b80806116d35750600073ffffffffffffffffffffffffffffffffffffffff168273ffffffffffffffffffffffffffffffffffffffff1614155b156118075760006116e384610e81565b9050600073ffffffffffffffffffffffffffffffffffffffff168373ffffffffffffffffffffffffffffffffffffffff161415801561174e57508273ffffffffffffffffffffffffffffffffffffffff168173ffffffffffffffffffffffffffffffffffffffff1614155b8015611761575061175f8184610c85565b155b156117a357826040517fa9fbf51f00000000000000000000000000000000000000000000000000000000815260040161179a9190612391565b60405180910390fd5b811561180557838573ffffffffffffffffffffffffffffffffffffffff168273ffffffffffffffffffffffffffffffffffffffff167f8c5be1e5ebec7d5bd14f71427d1e84f3dd0314c0f7b2291e5b200ac8c7c3b92560405160405180910390a45b505b836004600085815260200190815260200160002060006101000a81548173ffffffffffffffffffffffffffffffffffffffff021916908373ffffffffffffffffffffffffffffffffffffffff16021790555050505050565b6118698383611eee565b6118766000848484611357565b505050565b6000806118878461165d565b9050600073ffffffffffffffffffffffffffffffffffffffff168373ffffffffffffffffffffffffffffffffffffffff16146118c9576118c8818486611fe7565b5b600073ffffffffffffffffffffffffffffffffffffffff168173ffffffffffffffffffffffffffffffffffffffff161461195a5761190b60008560008061169a565b6001600360008373ffffffffffffffffffffffffffffffffffffffff1673ffffffffffffffffffffffffffffffffffffffff168152602001908152602001600020600082825403925050819055505b600073ffffffffffffffffffffffffffffffffffffffff168573ffffffffffffffffffffffffffffffffffffffff16146119dd576001600360008773ffffffffffffffffffffffffffffffffffffffff1673ffffffffffffffffffffffffffffffffffffffff168152602001908152602001600020600082825401925050819055505b846002600086815260200190815260200160002060006101000a81548173ffffffffffffffffffffffffffffffffffffffff021916908373ffffffffffffffffffffffffffffffffffffffff160217905550838573ffffffffffffffffffffffffffffffffffffffff168273ffffffffffffffffffffffffffffffffffffffff167fddf252ad1be2c89b69c2b068fc378daa952ba7f163c4a11628f55a4df523b3ef60405160405180910390a4809150509392505050565b6008805490506009600083815260200190815260200160002081905550600881908060018154018082558091505060019003906000526020600020016000909190919091505550565b6000611ae983610a44565b9050600060076000848152602001908152602001600020549050818114611bce576000600660008673ffffffffffffffffffffffffffffffffffffffff1673ffffffffffffffffffffffffffffffffffffffff168152602001908152602001600020600084815260200190815260200160002054905080600660008773ffffffffffffffffffffffffffffffffffffffff1673ffffffffffffffffffffffffffffffffffffffff168152602001908152602001600020600084815260200190815260200160002081905550816007600083815260200190815260200160002081905550505b6007600084815260200190815260200160002060009055600660008573ffffffffffffffffffffffffffffffffffffffff1673ffffffffffffffffffffffffffffffffffffffff16815260200190815260200160002060008381526020019081526020016000206000905550505050565b60006001600880549050611c5391906128c1565b9050600060096000848152602001908152602001600020549050600060088381548110611c8357611c82612955565b5b906000526020600020015490508060088381548110611ca557611ca4612955565b5b906000526020600020018190555081600960008381526020019081526020016000208190555060096000858152602001908152602001600020600090556008805480611cf457611cf3612af6565b5b6001900381819060005260206000200160009055905550505050565b60006001611d1d84610a44565b611d2791906128c1565b905081600660008573ffffffffffffffffffffffffffffffffffffffff1673ffffffffffffffffffffffffffffffffffffffff168152602001908152602001600020600083815260200190815260200160002081905550806007600084815260200190815260200160002081905550505050565b600080600090507a184f03e93ff9f4daa797ed6e38ed64bf6a1f0100000000000000008310611df9577a184f03e93ff9f4daa797ed6e38ed64bf6a1f0100000000000000008381611def57611dee612ac7565b5b0492506040810190505b6d04ee2d6d415b85acef81000000008310611e36576d04ee2d6d415b85acef81000000008381611e2c57611e2b612ac7565b5b0492506020810190505b662386f26fc100008310611e6557662386f26fc100008381611e5b57611e5a612ac7565b5b0492506010810190505b6305f5e1008310611e8e576305f5e1008381611e8457611e83612ac7565b5b0492506008810190505b6127108310611eb3576127108381611ea957611ea8612ac7565b5b0492506004810190505b60648310611ed65760648381611ecc57611ecb612ac7565b5b0492506002810190505b600a8310611ee5576001810190505b80915050919050565b600073ffffffffffffffffffffffffffffffffffffffff168273ffffffffffffffffffffffffffffffffffffffff1603611f605760006040517f64a0ae92000000000000000000000000000000000000000000000000000000008152600401611f579190612391565b60405180910390fd5b6000611f6e83836000610f7e565b9050600073ffffffffffffffffffffffffffffffffffffffff168173ffffffffffffffffffffffffffffffffffffffff1614611fe25760006040517f73c6ac6e000000000000000000000000000000000000000000000000000000008152600401611fd99190612391565b60405180910390fd5b505050565b611ff28383836120ab565b6120a657600073ffffffffffffffffffffffffffffffffffffffff168373ffffffffffffffffffffffffffffffffffffffff160361206757806040517f7e27328900000000000000000000000000000000000000000000000000000000815260040161205e9190612427565b60405180910390fd5b81816040517f177e802f00000000000000000000000000000000000000000000000000000000815260040161209d92919061292c565b60405180910390fd5b505050565b60008073ffffffffffffffffffffffffffffffffffffffff168373ffffffffffffffffffffffffffffffffffffffff161415801561216357508273ffffffffffffffffffffffffffffffffffffffff168473ffffffffffffffffffffffffffffffffffffffff16148061212457506121238484610c85565b5b8061216257508273ffffffffffffffffffffffffffffffffffffffff1661214a83610f09565b73ffffffffffffffffffffffffffffffffffffffff16145b5b90509392505050565b6000604051905090565b600080fd5b600080fd5b60007fffffffff0000000000000000000000000000000000000000000000000000000082169050919050565b6121b581612180565b81146121c057600080fd5b50565b6000813590506121d2816121ac565b92915050565b6000602082840312156121ee576121ed612176565b5b60006121fc848285016121c3565b91505092915050565b60008115159050919050565b61221a81612205565b82525050565b60006020820190506122356000830184612211565b92915050565b600081519050919050565b600082825260208201905092915050565b60005b8381101561227557808201518184015260208101905061225a565b60008484015250505050565b6000601f19601f8301169050919050565b600061229d8261223b565b6122a78185612246565b93506122b7818560208601612257565b6122c081612281565b840191505092915050565b600060208201905081810360008301526122e58184612292565b905092915050565b6000819050919050565b612300816122ed565b811461230b57600080fd5b50565b60008135905061231d816122f7565b92915050565b60006020828403121561233957612338612176565b5b60006123478482850161230e565b91505092915050565b600073ffffffffffffffffffffffffffffffffffffffff82169050919050565b600061237b82612350565b9050919050565b61238b81612370565b82525050565b60006020820190506123a66000830184612382565b92915050565b6123b581612370565b81146123c057600080fd5b50565b6000813590506123d2816123ac565b92915050565b600080604083850312156123ef576123ee612176565b5b60006123fd858286016123c3565b925050602061240e8582860161230e565b9150509250929050565b612421816122ed565b82525050565b600060208201905061243c6000830184612418565b92915050565b60008060006060848603121561245b5761245a612176565b5b6000612469868287016123c3565b935050602061247a868287016123c3565b925050604061248b8682870161230e565b9150509250925092565b6000602082840312156124ab576124aa612176565b5b60006124b9848285016123c3565b91505092915050565b6124cb81612205565b81146124d657600080fd5b50565b6000813590506124e8816124c2565b92915050565b6000806040838503121561250557612504612176565b5b6000612513858286016123c3565b9250506020612524858286016124d9565b9150509250929050565b600080fd5b600080fd5b7f4e487b7100000000000000000000000000000000000000000000000000000000600052604160045260246000fd5b61257082612281565b810181811067ffffffffffffffff8211171561258f5761258e612538565b5b80604052505050565b60006125a261216c565b90506125ae8282612567565b919050565b600067ffffffffffffffff8211156125ce576125cd612538565b5b6125d782612281565b9050602081019050919050565b82818337600083830152505050565b6000612606612601846125b3565b612598565b90508281526020810184848401111561262257612621612533565b5b61262d8482856125e4565b509392505050565b600082601f83011261264a5761264961252e565b5b813561265a8482602086016125f3565b91505092915050565b6000806000806080858703121561267d5761267c612176565b5b600061268b878288016123c3565b945050602061269c878288016123c3565b93505060406126ad8782880161230e565b925050606085013567ffffffffffffffff8111156126ce576126cd61217b565b5b6126da87828801612635565b91505092959194509250565b600080604083850312156126fd576126fc612176565b5b600061270b858286016123c3565b925050602061271c858286016123c3565b9150509250929050565b7f4e487b7100000000000000000000000000000000000000000000000000000000600052602260045260246000fd5b6000600282049050600182168061276d57607f821691505b6020821081036127805761277f612726565b5b50919050565b7f4d617820737570706c7920726561636865640000000000000000000000000000600082015250565b60006127bc601283612246565b91506127c782612786565b602082019050919050565b600060208201905081810360008301526127eb816127af565b9050919050565b7f496e73756666696369656e742066756e64730000000000000000000000000000600082015250565b6000612828601283612246565b9150612833826127f2565b602082019050919050565b600060208201905081810360008301526128578161281b565b9050919050565b7f4e487b7100000000000000000000000000000000000000000000000000000000600052601160045260246000fd5b6000612898826122ed565b91506128a3836122ed565b92508282019050808211156128bb576128ba61285e565b5b92915050565b60006128cc826122ed565b91506128d7836122ed565b92508282039050818111156128ef576128ee61285e565b5b92915050565b600060608201905061290a6000830186612382565b6129176020830185612418565b6129246040830184612382565b949350505050565b60006040820190506129416000830185612382565b61294e6020830184612418565b9392505050565b7f4e487b7100000000000000000000000000000000000000000000000000000000600052603260045260246000fd5b600081905092915050565b600061299a8261223b565b6129a48185612984565b93506129b4818560208601612257565b80840191505092915050565b60006129cc828561298f565b91506129d8828461298f565b91508190509392505050565b600081519050919050565b600082825260208201905092915050565b6000612a0b826129e4565b612a1581856129ef565b9350612a25818560208601612257565b612a2e81612281565b840191505092915050565b6000608082019050612a4e6000830187612382565b612a5b6020830186612382565b612a686040830185612418565b8181036060830152612a7a8184612a00565b905095945050505050565b600081519050612a94816121ac565b92915050565b600060208284031215612ab057612aaf612176565b5b6000612abe84828501612a85565b91505092915050565b7f4e487b7100000000000000000000000000000000000000000000000000000000600052601260045260246000fd5b7f4e487b7100000000000000000000000000000000000000000000000000000000600052603160045260246000fdfea264697066735822122035a2a2f68ccdbcee742689be604f5114815e9de9536c09a03cdb869579362ad864736f6c63430008140033",
  "linkReferences": {},
  "deployedLinkReferences": {}
}